{
  "_format": "hh-sol-artifact-1",
  "contractName": "TheSystem",
  "sourceName": "contracts/TheSystem.sol",
  "abi": [
    {
      "inputs": [],
      "stateMutability": "nonpayable",
      "type": "constructor"
    },
    {
      "anonymous": false,
      "inputs": [
        {
          "indexed": false,
          "internalType": "uint256[]",
          "name": "_ids",
          "type": "uint256[]"
        }
      ],
      "name": "ActivateBatch",
      "type": "event"
    },
    {
      "anonymous": false,
      "inputs": [
        {
          "indexed": true,
          "internalType": "address",
          "name": "account",
          "type": "address"
        },
        {
          "indexed": true,
          "internalType": "address",
          "name": "operator",
          "type": "address"
        },
        {
          "indexed": false,
          "internalType": "bool",
          "name": "approved",
          "type": "bool"
        }
      ],
      "name": "ApprovalForAll",
      "type": "event"
    },
    {
      "anonymous": false,
      "inputs": [
        {
          "indexed": false,
          "internalType": "bool",
          "name": "",
          "type": "bool"
        }
      ],
      "name": "MintStatus",
      "type": "event"
    },
    {
      "anonymous": false,
      "inputs": [
        {
          "indexed": false,
          "internalType": "string",
          "name": "_newURI",
          "type": "string"
        }
      ],
      "name": "NewUri",
      "type": "event"
    },
    {
      "anonymous": false,
      "inputs": [
        {
          "indexed": true,
          "internalType": "address",
          "name": "previousOwner",
          "type": "address"
        },
        {
          "indexed": true,
          "internalType": "address",
          "name": "newOwner",
          "type": "address"
        }
      ],
      "name": "OwnershipTransferred",
      "type": "event"
    },
    {
      "anonymous": false,
      "inputs": [
        {
          "indexed": false,
          "internalType": "uint256",
          "name": "_value",
          "type": "uint256"
        }
      ],
      "name": "SetMaxSupply",
      "type": "event"
    },
    {
      "anonymous": false,
      "inputs": [
        {
          "indexed": true,
          "internalType": "address",
          "name": "operator",
          "type": "address"
        },
        {
          "indexed": true,
          "internalType": "address",
          "name": "from",
          "type": "address"
        },
        {
          "indexed": true,
          "internalType": "address",
          "name": "to",
          "type": "address"
        },
        {
          "indexed": false,
          "internalType": "uint256[]",
          "name": "ids",
          "type": "uint256[]"
        },
        {
          "indexed": false,
          "internalType": "uint256[]",
          "name": "values",
          "type": "uint256[]"
        }
      ],
      "name": "TransferBatch",
      "type": "event"
    },
    {
      "anonymous": false,
      "inputs": [
        {
          "indexed": true,
          "internalType": "address",
          "name": "operator",
          "type": "address"
        },
        {
          "indexed": true,
          "internalType": "address",
          "name": "from",
          "type": "address"
        },
        {
          "indexed": true,
          "internalType": "address",
          "name": "to",
          "type": "address"
        },
        {
          "indexed": false,
          "internalType": "uint256",
          "name": "id",
          "type": "uint256"
        },
        {
          "indexed": false,
          "internalType": "uint256",
          "name": "value",
          "type": "uint256"
        }
      ],
      "name": "TransferSingle",
      "type": "event"
    },
    {
      "anonymous": false,
      "inputs": [
        {
          "indexed": false,
          "internalType": "string",
          "name": "value",
          "type": "string"
        },
        {
          "indexed": true,
          "internalType": "uint256",
          "name": "id",
          "type": "uint256"
        }
      ],
      "name": "URI",
      "type": "event"
    },
    {
      "inputs": [
        {
          "internalType": "uint256[]",
          "name": "ids",
          "type": "uint256[]"
        }
      ],
      "name": "activateBatch",
      "outputs": [],
      "stateMutability": "nonpayable",
      "type": "function"
    },
    {
      "inputs": [
        {
          "internalType": "address",
          "name": "account",
          "type": "address"
        },
        {
          "internalType": "uint256",
          "name": "id",
          "type": "uint256"
        }
      ],
      "name": "balanceOf",
      "outputs": [
        {
          "internalType": "uint256",
          "name": "",
          "type": "uint256"
        }
      ],
      "stateMutability": "view",
      "type": "function"
    },
    {
      "inputs": [
        {
          "internalType": "address[]",
          "name": "accounts",
          "type": "address[]"
        },
        {
          "internalType": "uint256[]",
          "name": "ids",
          "type": "uint256[]"
        }
      ],
      "name": "balanceOfBatch",
      "outputs": [
        {
          "internalType": "uint256[]",
          "name": "",
          "type": "uint256[]"
        }
      ],
      "stateMutability": "view",
      "type": "function"
    },
    {
      "inputs": [
        {
          "internalType": "address",
          "name": "account",
          "type": "address"
        },
        {
          "internalType": "uint256",
          "name": "id",
          "type": "uint256"
        },
        {
          "internalType": "uint256",
          "name": "value",
          "type": "uint256"
        }
      ],
      "name": "burn",
      "outputs": [],
      "stateMutability": "nonpayable",
      "type": "function"
    },
    {
      "inputs": [
        {
          "internalType": "address",
          "name": "account",
          "type": "address"
        },
        {
          "internalType": "uint256[]",
          "name": "ids",
          "type": "uint256[]"
        },
        {
          "internalType": "uint256[]",
          "name": "values",
          "type": "uint256[]"
        }
      ],
      "name": "burnBatch",
      "outputs": [],
      "stateMutability": "nonpayable",
      "type": "function"
    },
    {
      "inputs": [
        {
          "internalType": "bytes32",
          "name": "c__0x50c59b50",
          "type": "bytes32"
        }
      ],
      "name": "c_0x50c59b50",
      "outputs": [],
      "stateMutability": "pure",
      "type": "function"
    },
    {
      "inputs": [],
      "name": "changeMint",
      "outputs": [],
      "stateMutability": "nonpayable",
      "type": "function"
    },
    {
      "inputs": [
        {
          "internalType": "uint256",
          "name": "id",
          "type": "uint256"
        }
      ],
      "name": "exists",
      "outputs": [
        {
          "internalType": "bool",
          "name": "",
          "type": "bool"
        }
      ],
      "stateMutability": "view",
      "type": "function"
    },
    {
      "inputs": [
        {
          "internalType": "address",
          "name": "",
          "type": "address"
        },
        {
          "internalType": "address",
          "name": "",
          "type": "address"
        }
      ],
      "name": "interactions",
      "outputs": [
        {
          "internalType": "uint256",
          "name": "",
          "type": "uint256"
        }
      ],
      "stateMutability": "view",
      "type": "function"
    },
    {
      "inputs": [
        {
          "internalType": "uint256",
          "name": "id",
          "type": "uint256"
        }
      ],
      "name": "isActiveID",
      "outputs": [
        {
          "internalType": "bool",
          "name": "",
          "type": "bool"
        }
      ],
      "stateMutability": "view",
      "type": "function"
    },
    {
      "inputs": [
        {
          "internalType": "address",
          "name": "account",
          "type": "address"
        },
        {
          "internalType": "address",
          "name": "operator",
          "type": "address"
        }
      ],
      "name": "isApprovedForAll",
      "outputs": [
        {
          "internalType": "bool",
          "name": "",
          "type": "bool"
        }
      ],
      "stateMutability": "view",
      "type": "function"
    },
    {
      "inputs": [],
      "name": "maxSupply",
      "outputs": [
        {
          "internalType": "uint256",
          "name": "",
          "type": "uint256"
        }
      ],
      "stateMutability": "view",
      "type": "function"
    },
    {
      "inputs": [
        {
          "internalType": "address",
          "name": "account",
          "type": "address"
        },
        {
          "internalType": "uint256",
          "name": "id",
          "type": "uint256"
        },
        {
          "internalType": "uint256",
          "name": "amount",
          "type": "uint256"
        },
        {
          "internalType": "bytes",
          "name": "data",
          "type": "bytes"
        }
      ],
      "name": "mint",
      "outputs": [],
      "stateMutability": "nonpayable",
      "type": "function"
    },
    {
      "inputs": [],
      "name": "mintActive",
      "outputs": [
        {
          "internalType": "bool",
          "name": "",
          "type": "bool"
        }
      ],
      "stateMutability": "view",
      "type": "function"
    },
    {
      "inputs": [
        {
          "internalType": "address",
          "name": "to",
          "type": "address"
        },
        {
          "internalType": "uint256[]",
          "name": "ids",
          "type": "uint256[]"
        },
        {
          "internalType": "uint256[]",
          "name": "amounts",
          "type": "uint256[]"
        },
        {
          "internalType": "bytes",
          "name": "data",
          "type": "bytes"
        }
      ],
      "name": "mintBatch",
      "outputs": [],
      "stateMutability": "nonpayable",
      "type": "function"
    },
    {
      "inputs": [
        {
          "internalType": "address",
          "name": "_address",
          "type": "address"
        }
      ],
      "name": "myPower",
      "outputs": [
        {
          "internalType": "uint256",
          "name": "",
          "type": "uint256"
        }
      ],
      "stateMutability": "view",
      "type": "function"
    },
    {
      "inputs": [],
      "name": "owner",
      "outputs": [
        {
          "internalType": "address",
          "name": "",
          "type": "address"
        }
      ],
      "stateMutability": "view",
      "type": "function"
    },
    {
      "inputs": [],
      "name": "renounceOwnership",
      "outputs": [],
      "stateMutability": "nonpayable",
      "type": "function"
    },
    {
      "inputs": [
        {
          "internalType": "address",
          "name": "from",
          "type": "address"
        },
        {
          "internalType": "address",
          "name": "to",
          "type": "address"
        },
        {
          "internalType": "uint256[]",
          "name": "ids",
          "type": "uint256[]"
        },
        {
          "internalType": "uint256[]",
          "name": "amounts",
          "type": "uint256[]"
        },
        {
          "internalType": "bytes",
          "name": "data",
          "type": "bytes"
        }
      ],
      "name": "safeBatchTransferFrom",
      "outputs": [],
      "stateMutability": "nonpayable",
      "type": "function"
    },
    {
      "inputs": [
        {
          "internalType": "address",
          "name": "from",
          "type": "address"
        },
        {
          "internalType": "address",
          "name": "to",
          "type": "address"
        },
        {
          "internalType": "uint256",
          "name": "id",
          "type": "uint256"
        },
        {
          "internalType": "uint256",
          "name": "amount",
          "type": "uint256"
        },
        {
          "internalType": "bytes",
          "name": "data",
          "type": "bytes"
        }
      ],
      "name": "safeTransferFrom",
      "outputs": [],
      "stateMutability": "nonpayable",
      "type": "function"
    },
    {
      "inputs": [
        {
          "internalType": "address",
          "name": "operator",
          "type": "address"
        },
        {
          "internalType": "bool",
          "name": "approved",
          "type": "bool"
        }
      ],
      "name": "setApprovalForAll",
      "outputs": [],
      "stateMutability": "nonpayable",
      "type": "function"
    },
    {
      "inputs": [
        {
          "internalType": "string",
          "name": "newuri",
          "type": "string"
        }
      ],
      "name": "setBaseURI",
      "outputs": [],
      "stateMutability": "nonpayable",
      "type": "function"
    },
    {
      "inputs": [
        {
          "internalType": "uint256",
          "name": "amount",
          "type": "uint256"
        }
      ],
      "name": "setMaxSupply",
      "outputs": [],
      "stateMutability": "nonpayable",
      "type": "function"
    },
    {
      "inputs": [
        {
          "internalType": "bytes4",
          "name": "interfaceId",
          "type": "bytes4"
        }
      ],
      "name": "supportsInterface",
      "outputs": [
        {
          "internalType": "bool",
          "name": "",
          "type": "bool"
        }
      ],
      "stateMutability": "view",
      "type": "function"
    },
    {
      "inputs": [
        {
          "internalType": "uint256",
          "name": "id",
          "type": "uint256"
        }
      ],
      "name": "totalSupply",
      "outputs": [
        {
          "internalType": "uint256",
          "name": "",
          "type": "uint256"
        }
      ],
      "stateMutability": "view",
      "type": "function"
    },
    {
      "inputs": [
        {
          "internalType": "address",
          "name": "newOwner",
          "type": "address"
        }
      ],
      "name": "transferOwnership",
      "outputs": [],
      "stateMutability": "nonpayable",
      "type": "function"
    },
    {
      "inputs": [
        {
          "internalType": "uint256",
          "name": "_id",
          "type": "uint256"
        }
      ],
      "name": "uri",
      "outputs": [
        {
          "internalType": "string",
          "name": "",
          "type": "string"
        }
      ],
      "stateMutability": "view",
      "type": "function"
    }
  ],
  "bytecode": "0x60806040523480156200001157600080fd5b506040518060200160405280600081525062000033816200008e60201b60201c565b506200005462000048620000aa60201b60201c565b620000b260201b60201c565b620000887fc35261637ee4012c21b4c6df2962e0f102f3b9fe8a41ff3b96a6d5b9a8f81d4a60001b6200017860201b60201c565b62000290565b8060029080519060200190620000a69291906200017b565b5050565b600033905090565b6000600360009054906101000a900473ffffffffffffffffffffffffffffffffffffffff16905081600360006101000a81548173ffffffffffffffffffffffffffffffffffffffff021916908373ffffffffffffffffffffffffffffffffffffffff1602179055508173ffffffffffffffffffffffffffffffffffffffff168173ffffffffffffffffffffffffffffffffffffffff167f8be0079c531659141344cd1fd0a4f28419497f9722a3daafe3b4186f6b6457e060405160405180910390a35050565b50565b82805462000189906200022b565b90600052602060002090601f016020900481019282620001ad5760008555620001f9565b82601f10620001c857805160ff1916838001178555620001f9565b82800160010185558215620001f9579182015b82811115620001f8578251825591602001919060010190620001db565b5b5090506200020891906200020c565b5090565b5b80821115620002275760008160009055506001016200020d565b5090565b600060028204905060018216806200024457607f821691505b602082108114156200025b576200025a62000261565b5b50919050565b7f4e487b7100000000000000000000000000000000000000000000000000000000600052602260045260246000fd5b61875c80620002a06000396000f3fe608060405234801561001057600080fd5b50600436106101a85760003560e01c8063715018a6116100f9578063d5abeb0111610097578063f242432a11610071578063f242432a146104c7578063f2fde38b146104e3578063f5298aca146104ff578063fcb928011461051b576101a8565b8063d5abeb011461046f578063e985e9c51461048d578063eeb79d40146104bd576101a8565b80638da5cb5b116100d35780638da5cb5b146103d5578063a22cb465146103f3578063b8543de51461040f578063bd85b0391461043f576101a8565b8063715018a61461037f578063731133e91461038957806387120e49146103a5576101a8565b80634dc657091161016657806355f804b31161014057806355f804b31461030f57806360e97bdf1461032b5780636b20c454146103475780636f8b44b014610363576101a8565b80634dc65709146102935780634e1273f4146102af5780634f558e79146102df576101a8565b8062fdd58e146101ad57806301ffc9a7146101dd5780630e89341c1461020d5780631f7fdffa1461023d57806325fd90f3146102595780632eb2c2d614610277575b600080fd5b6101c760048036038101906101c29190617210565b61054b565b6040516101d49190617c38565b60405180910390f35b6101f760048036038101906101f291906173ec565b610614565b604051610204919061799b565b60405180910390f35b6102276004803603810190610222919061747f565b6106f6565b60405161023491906179b6565b60405180910390f35b61025760048036038101906102529190617129565b610855565b005b610261610d3a565b60405161026e919061799b565b60405180910390f35b610291600480360381019061028c9190616f5c565b610d4d565b005b6102ad60048036038101906102a891906173c3565b611d9e565b005b6102c960048036038101906102c49190617316565b611da1565b6040516102d69190617942565b60405180910390f35b6102f960048036038101906102f4919061747f565b611f52565b604051610306919061799b565b60405180910390f35b6103296004803603810190610324919061743e565b611f66565b005b61034560048036038101906103409190617382565b61210f565b005b610361600480360381019061035c91906170aa565b612385565b005b61037d6004803603810190610378919061747f565b6126f4565b005b610387612983565b005b6103a3600480360381019061039e919061729b565b612a0b565b005b6103bf60048036038101906103ba9190616ef7565b612db8565b6040516103cc9190617c38565b60405180910390f35b6103dd612e85565b6040516103ea9190617865565b60405180910390f35b61040d600480360381019061040891906171d4565b612eaf565b005b61042960048036038101906104249190616f20565b612ec5565b6040516104369190617c38565b60405180910390f35b6104596004803603810190610454919061747f565b612eea565b6040516104669190617c38565b60405180910390f35b610477612f07565b6040516104849190617c38565b60405180910390f35b6104a760048036038101906104a29190616f20565b612f0d565b6040516104b4919061799b565b60405180910390f35b6104c5612fa1565b005b6104e160048036038101906104dc919061701b565b61316b565b005b6104fd60048036038101906104f89190616ef7565b614043565b005b6105196004803603810190610514919061724c565b61413b565b005b6105356004803603810190610530919061747f565b6143f2565b604051610542919061799b565b60405180910390f35b60008073ffffffffffffffffffffffffffffffffffffffff168373ffffffffffffffffffffffffffffffffffffffff1614156105bc576040517f08c379a00000000000000000000000000000000000000000000000000000000081526004016105b390617a58565b60405180910390fd5b60008083815260200190815260200160002060008473ffffffffffffffffffffffffffffffffffffffff1673ffffffffffffffffffffffffffffffffffffffff16815260200190815260200160002054905092915050565b60007fd9b67a26000000000000000000000000000000000000000000000000000000007bffffffffffffffffffffffffffffffffffffffffffffffffffffffff1916827bffffffffffffffffffffffffffffffffffffffffffffffffffffffff191614806106df57507f0e89341c000000000000000000000000000000000000000000000000000000007bffffffffffffffffffffffffffffffffffffffffffffffffffffffff1916827bffffffffffffffffffffffffffffffffffffffffffffffffffffffff1916145b806106ef57506106ee826144a0565b5b9050919050565b60606107247f72e97b99a30710c366ed26217ab90eb574260ed5f4a685b3cad0695ffbc5fb2f60001b611d9e565b6107507f9cbc499a33a9e2d9dfd11ccbd436cc22816021ee7b4750ebb8d7b939ffbb712160001b611d9e565b61077c7ff10595c5a8b5cba1bfa27468525124a8508a4ff5f7290a2104702ee7ae317c9960001b611d9e565b61084e6007805461078c90617f71565b80601f01602080910402602001604051908101604052809291908181526020018280546107b890617f71565b80156108055780601f106107da57610100808354040283529160200191610805565b820191906000526020600020905b8154815290600101906020018083116107e857829003601f168201915b50505050506108138461450a565b6040518060400160405280600581526020017f2e6a736f6e000000000000000000000000000000000000000000000000000000815250614be5565b9050919050565b6108817f1b6047bbf394d7da2662d89b9b99af4f11103c97f5505095b5bd2ea3289e145a60001b611d9e565b6108ad7fc3d76dc9202f7ade40f10a5bbfdacd44686ab2f31f2d16b9a771350786e9c39360001b611d9e565b6108d97f7b4edf074849b4e472846bfef37d1427d320e8bfeab60c54edfcdb4dec6c2bf760001b611d9e565b6109057f733a3c6dea017fc918cc4d23559993ffe741109680bc9eceab94dad90ac4376c60001b611d9e565b600960009054906101000a900460ff16610954576040517f08c379a000000000000000000000000000000000000000000000000000000000815260040161094b90617b38565b60405180910390fd5b6109807f3d647bc42d145816cf246bf38b79b8890cff7dbe395ea3e7b6b434ace58d01a960001b611d9e565b6109ac7f8a0e8e117fbff79b0bacda81a237324327591649ac316b5229c64f5d7e98c1b660001b611d9e565b6109d87f818292db51ccd0b861fea31d4741f738b7bb3f493b2e0da661870ba1b150718460001b611d9e565b60005b8351811015610ccf57610a107f30f6f4e341649d224bee2bd823e12a1f3941924b0d021bb864d6ddbb78067d0060001b611d9e565b610a3c7f49572f2f9ddf9e301fb39d369078cb6976fc34cf3a08d7dae0e808d076c44c3f60001b611d9e565b610a687f57fbe68c9628c801b5ef2f6eec4b18dbcf0898252f8171f8a5c41ef36910fbf860001b611d9e565b60056000858381518110610aa5577f4e487b7100000000000000000000000000000000000000000000000000000000600052603260045260246000fd5b6020026020010151815260200190815260200160002060009054906101000a900460ff16610b08576040517f08c379a0000000000000000000000000000000000000000000000000000000008152600401610aff90617b58565b60405180910390fd5b610b347fcaae8ac4caecafdab3aa7b47b65c528df95ec2ebcea8b01c0f09657f29a32c9660001b611d9e565b610b607f6b833a0b59ea3472fd7245bddaf66f5af46d957764d98fa2210e66b40151766560001b611d9e565b610b8c7f2aed915c327295ece7771a6175c78266b93ba9ac2832938004d55d06df4c333f60001b611d9e565b610bb87fc9404b54b944a1cf8d0b4f538da7b38fa655122f4a92bca81b69c70756b1986660001b611d9e565b610c01848281518110610bf4577f4e487b7100000000000000000000000000000000000000000000000000000000600052603260045260246000fd5b6020026020010151612eea565b838281518110610c3a577f4e487b7100000000000000000000000000000000000000000000000000000000600052603260045260246000fd5b6020026020010151610c4c9190617dcc565b6008541015610c90576040517f08c379a0000000000000000000000000000000000000000000000000000000008152600401610c8790617ad8565b60405180910390fd5b610cbc7fbd1793e9eb19a19c8e09f47ef2cc5751488873d8ea611778fa5bbc2fbcd8e52060001b611d9e565b8080610cc790617fd4565b9150506109db565b50610cfc7f5eacc2bc5e4371aaa25212b95bad4daac8a8c94c615da9056c70fd6d2b8c749860001b611d9e565b610d287f5ff8b6075a1778e50a87cb3b58a2cc40f9820028c941fff1f0ad907c1cca93d860001b611d9e565b610d3484848484615345565b50505050565b600960009054906101000a900460ff1681565b610d797f8c41cbb54b9e71075ad084ab0c5558034cc33a5957cbc95815a30a62f5c3c11a60001b611d9e565b610da57f9d1d33dc18a4f372d58dfdefdce509595c66e4126bcc47d006498fab8649781360001b611d9e565b610dd17f574a639ca5ebbc6dd83ee792caaf824a85efda643e7171d8ac4d5c28c573366560001b611d9e565b6000610dff7f0172dde5b2f9e45de9597996169c34fdb830fa5ffb1571175a282bb03841ebd160001b611d9e565b610e2b7fed70658db45877a9a74c200e97f73e2bad4ba201b5ebd5e62e98012c5361414360001b611d9e565b610e577fbeb13a49bf8ceff0b476d117cdb67c32db5973679fde25afa58784efeaa2cc3060001b611d9e565b610e5f6155af565b73ffffffffffffffffffffffffffffffffffffffff168673ffffffffffffffffffffffffffffffffffffffff161480610ea55750610ea486610e9f6155af565b612f0d565b5b610ee4576040517f08c379a0000000000000000000000000000000000000000000000000000000008152600401610edb90617a38565b60405180910390fd5b610f107fd6d2bb1fa66c3fd2d37d26e6f5ab50374e197cc88839d0165db3990c1ad7488160001b611d9e565b610f3c7f240c9b804c5e26ae5cfb98968e60c7e771c48175d868ae189ee37152e7515c4d60001b611d9e565b610f687fb8bd1fe84fbe996ae44e6c15be941fae253735355c7175332548df1dfc72878360001b611d9e565b60005b845181101561102d57610fa07fc60cde9f9e1ef8f614aa38d48d442765288dc08c74308e070f9bd9b6db86709160001b611d9e565b610fcc7f104941fa03f5365e965dccafc911b9e59396faca68899476d5fbc57fec484c2760001b611d9e565b838181518110611005577f4e487b7100000000000000000000000000000000000000000000000000000000600052603260045260246000fd5b6020026020010151826110189190617dcc565b9150808061102590617fd4565b915050610f6b565b5061105a7f7f4b95130114ed618ec1afcdfaa14a2eddf7dc76baae20de6b12dc5fcc5a35d060001b611d9e565b6110867f0e67bf968bfd4aae5873f666a34d1aba6eee1d9bd35ba180645ff93c2fb69b9160001b611d9e565b600a60008673ffffffffffffffffffffffffffffffffffffffff1673ffffffffffffffffffffffffffffffffffffffff16815260200190815260200160002060008773ffffffffffffffffffffffffffffffffffffffff1673ffffffffffffffffffffffffffffffffffffffff16815260200190815260200160002054600a60008873ffffffffffffffffffffffffffffffffffffffff1673ffffffffffffffffffffffffffffffffffffffff16815260200190815260200160002060008773ffffffffffffffffffffffffffffffffffffffff1673ffffffffffffffffffffffffffffffffffffffff1681526020019081526020016000205410611593576111b17f709edc7ca3d95923af3c581f1d6648de4c9877d303908d320b05923e08dcbabd60001b611d9e565b6111dd7f1b31f9c8ad213267904d0f7f0f2154b4dd670bd88cf09dda84415f6fd73f7a2660001b611d9e565b6112097fe8bca297f725523f54f2c105a600dde5acd9925f91c4640533d8fb7ba8623e7460001b611d9e565b6112357f6f7a2116a76402f14b4590bda910f653e75f4e74860ce6d11ef7ac1070acd8d060001b611d9e565b80600660008873ffffffffffffffffffffffffffffffffffffffff1673ffffffffffffffffffffffffffffffffffffffff1681526020019081526020016000205410156112b7576040517f08c379a00000000000000000000000000000000000000000000000000000000081526004016112ae90617a18565b60405180910390fd5b6112e37f14f93d38a91c9e2751cf74b5910275ade4db50be6703bbaea82a97beebaa40bc60001b611d9e565b61130f7fef97dc3ada8d1fabf0e6c600e95f2dbb15a742db33dc1378c24d1736e66b3da160001b611d9e565b61133b7f5ad0c9f37afb42d48ce1eab4c6fa17108d45df5d8f679ba5533b012753e8342160001b611d9e565b80600660008873ffffffffffffffffffffffffffffffffffffffff1673ffffffffffffffffffffffffffffffffffffffff168152602001908152602001600020546113869190617e53565b600660008873ffffffffffffffffffffffffffffffffffffffff1673ffffffffffffffffffffffffffffffffffffffff168152602001908152602001600020819055506113f57f3ce871d9738955a7b697edd030947946e0e3e68c35510fda7f2d626c5359d7a060001b611d9e565b6114217fd438045aaed5b93222000252337c1b5ed7bc4cebcdb5aafb5b0dddd7eb26e0b560001b611d9e565b61142e86868686866155b7565b61145a7fc98858a408f83bb700d21532c2dcf8d5d10288ba85440856fdb2410086375ed860001b611d9e565b6114867f9ebe31e7909e0af238a1716e2a654fdb36f9dfed13959121374df623eb3e835860001b611d9e565b80600a60008873ffffffffffffffffffffffffffffffffffffffff1673ffffffffffffffffffffffffffffffffffffffff16815260200190815260200160002060008773ffffffffffffffffffffffffffffffffffffffff1673ffffffffffffffffffffffffffffffffffffffff1681526020019081526020016000205461150e9190617dcc565b600a60008873ffffffffffffffffffffffffffffffffffffffff1673ffffffffffffffffffffffffffffffffffffffff16815260200190815260200160002060008773ffffffffffffffffffffffffffffffffffffffff1673ffffffffffffffffffffffffffffffffffffffff16815260200190815260200160002081905550611d96565b6115bf7ff4ec78a2320f5888ef48566d78467887fffdaab33b5a02390bb5d5f4844047d660001b611d9e565b6115eb7fa3e54602a263cb23c8821b3bde48adb570d1b520905e82232bd8a461fbc09b7c60001b611d9e565b6116177f443aed2a3ba5439e5090eaf651cc5bc9057daa508b0b28fc5ecde3b9b645661e60001b611d9e565b6000600a60008873ffffffffffffffffffffffffffffffffffffffff1673ffffffffffffffffffffffffffffffffffffffff16815260200190815260200160002060008773ffffffffffffffffffffffffffffffffffffffff1673ffffffffffffffffffffffffffffffffffffffff16815260200190815260200160002054600a60008873ffffffffffffffffffffffffffffffffffffffff1673ffffffffffffffffffffffffffffffffffffffff16815260200190815260200160002060008973ffffffffffffffffffffffffffffffffffffffff1673ffffffffffffffffffffffffffffffffffffffff1681526020019081526020016000205461171d9190617e53565b905061174b7f36e859e53f9bd8063e0f89afb912b6139490942041b4080dce07761e0c8d736460001b611d9e565b6117777fb9d5494bd192f573f7273d2887b56a43867bb99386bb189ed5406c93c3f1fb9a60001b611d9e565b808210611ba2576117aa7ff1298231e949b84f11bd62513f7251fab646d967e5cd121a24a27c2f23d9117560001b611d9e565b6117d67fc677bad6217b68df1554b66229a0d24ffb6afa2e57aa7a179c9e3bff61cc96c860001b611d9e565b6118027fd709e6d48373e20fac2c131294ff63781c63d1c3214da2acf4089260415e1a2a60001b611d9e565b61182e7f9c19b5b8d4725e9007feb4fc0796dfc1985b0c5d19a625164790cbb58f7b811560001b611d9e565b80600660008973ffffffffffffffffffffffffffffffffffffffff1673ffffffffffffffffffffffffffffffffffffffff168152602001908152602001600020546118799190617dcc565b8211156118bb576040517f08c379a00000000000000000000000000000000000000000000000000000000081526004016118b290617a18565b60405180910390fd5b6118e77f917983c8ef7d3647232f3c385fe1c0aba5d13cc65fb9007e3e5013e3e0e5a5bb60001b611d9e565b6119137f9404a3c49e1291f40240bd6a1eca9defba2a2143447c31927c7c198a8505f5b760001b611d9e565b61193f7fb53bd3456c7fbf6392508c7f2e89f75488e0d7bdd8c2345323b081fcaccdeef560001b611d9e565b61194c87878787876155b7565b6119787f9e1f004673733cf3cbecf7ad1fb3b742bdbc58025cb48e34ad3ee79f2de6b74160001b611d9e565b6119a47f01b32414d1a549285b65b125deb45911602a9be184f44fe8a0d21a6ffcc6606960001b611d9e565b80826119b09190617e53565b600660008973ffffffffffffffffffffffffffffffffffffffff1673ffffffffffffffffffffffffffffffffffffffff168152602001908152602001600020546119fa9190617e53565b600660008973ffffffffffffffffffffffffffffffffffffffff1673ffffffffffffffffffffffffffffffffffffffff16815260200190815260200160002081905550611a697f68d3081de96fed160c4907e07c85037bae235314da4245631fd3f6bfad54a1a560001b611d9e565b611a957f17b14c010136494418782fa8bc29668d6aa102c9ec746fe33d77b9ab4690e96d60001b611d9e565b81600a60008973ffffffffffffffffffffffffffffffffffffffff1673ffffffffffffffffffffffffffffffffffffffff16815260200190815260200160002060008873ffffffffffffffffffffffffffffffffffffffff1673ffffffffffffffffffffffffffffffffffffffff16815260200190815260200160002054611b1d9190617dcc565b600a60008973ffffffffffffffffffffffffffffffffffffffff1673ffffffffffffffffffffffffffffffffffffffff16815260200190815260200160002060008873ffffffffffffffffffffffffffffffffffffffff1673ffffffffffffffffffffffffffffffffffffffff16815260200190815260200160002081905550611d94565b611bce7f9283079802dfb0639a299cb10e8a93f6241d591893d8f408cd39fe3c82b9d99060001b611d9e565b611bfa7fe477eaccfd972180aa17499e24d74af5cd553833e0978fce8988abb2fb322e4860001b611d9e565b611c267fc761904254d6ef61e4f38246aaf716b68c96512072c7c5905cee363e6cff812960001b611d9e565b611c3387878787876155b7565b611c5f7f5e405502dae1652a6be0217fdd5d36f110e8d370d2eec0e67486e2f6b13b794460001b611d9e565b611c8b7fd192606c7fea70e41104b2bc073cb69f7b502fd8a0c77c82841eabc01b2ab82b60001b611d9e565b81600a60008973ffffffffffffffffffffffffffffffffffffffff1673ffffffffffffffffffffffffffffffffffffffff16815260200190815260200160002060008873ffffffffffffffffffffffffffffffffffffffff1673ffffffffffffffffffffffffffffffffffffffff16815260200190815260200160002054611d139190617dcc565b600a60008973ffffffffffffffffffffffffffffffffffffffff1673ffffffffffffffffffffffffffffffffffffffff16815260200190815260200160002060008873ffffffffffffffffffffffffffffffffffffffff1673ffffffffffffffffffffffffffffffffffffffff168152602001908152602001600020819055505b505b505050505050565b50565b60608151835114611de7576040517f08c379a0000000000000000000000000000000000000000000000000000000008152600401611dde90617bb8565b60405180910390fd5b6000835167ffffffffffffffff811115611e2a577f4e487b7100000000000000000000000000000000000000000000000000000000600052604160045260246000fd5b604051908082528060200260200182016040528015611e585781602001602082028036833780820191505090505b50905060005b8451811015611f4757611ef1858281518110611ea3577f4e487b7100000000000000000000000000000000000000000000000000000000600052603260045260246000fd5b6020026020010151858381518110611ee4577f4e487b7100000000000000000000000000000000000000000000000000000000600052603260045260246000fd5b602002602001015161054b565b828281518110611f2a577f4e487b7100000000000000000000000000000000000000000000000000000000600052603260045260246000fd5b60200260200101818152505080611f4090617fd4565b9050611e5e565b508091505092915050565b600080611f5e83612eea565b119050919050565b611f6e6155af565b73ffffffffffffffffffffffffffffffffffffffff16611f8c612e85565b73ffffffffffffffffffffffffffffffffffffffff1614611fe2576040517f08c379a0000000000000000000000000000000000000000000000000000000008152600401611fd990617b78565b60405180910390fd5b61200e7f75f9861f7156a73165f1fc62d06ec317c38f57c4a0d497977cb4e4744b4e66a360001b611d9e565b61203a7f1241db0d9e28b5396be024457111694adb97de3a99438a74c4762892dc599a8060001b611d9e565b6120667fd63e8c2145c5e18f85d087ede6e7161defd0e5e85c639232bb36e70bd73a6b3d60001b611d9e565b806007908051906020019061207c929190616bda565b506120a97f0a93255c079bce7ed82b4a5a4273ce0e7c5f34a97a4d2dc63010fb6620de0db960001b611d9e565b6120d57f4afc1fb2cf88ed79e5642111ad250171fe325c4900868a7a069fc9d3cadeadec60001b611d9e565b7f4c0b05f070a112d3bffee3f6b64fc83aced032d864dfa60c25ba59f82ee489ee8160405161210491906179b6565b60405180910390a150565b6121176155af565b73ffffffffffffffffffffffffffffffffffffffff16612135612e85565b73ffffffffffffffffffffffffffffffffffffffff161461218b576040517f08c379a000000000000000000000000000000000000000000000000000000000815260040161218290617b78565b60405180910390fd5b6121b77f227c187787b2c7cb4c612b85fb077558d26b2070715f75fc1ae8a8b886cb1a9460001b611d9e565b6121e37fefd153864c8d9d9de4641f274f21e69e9f34e2f201918864d1fb7b8d429850ff60001b611d9e565b61220f7f96a4ca1515a8ab92258e19f325f9252a1aba2384c10b169bbfe8c3c7008bee9f60001b611d9e565b60005b81518110156122f2576122477f0b72059375bf7ee5e7723f8042ff0aea0ace247ec2205f583087acbecccd207260001b611d9e565b6122737f4420b07fad144b9031d616d7df73fdfb557847e178cd20fbfc525bad78db7ef660001b611d9e565b6001600560008484815181106122b2577f4e487b7100000000000000000000000000000000000000000000000000000000600052603260045260246000fd5b6020026020010151815260200190815260200160002060006101000a81548160ff02191690831515021790555080806122ea90617fd4565b915050612212565b5061231f7f897eb6fd2b7a95f867ed5e14a1f490d4fd0d62c7002d3a372d7eb05307f848ba60001b611d9e565b61234b7fc9a174d99d04240090fa2a165eb874b921c96954a0184044de5a474a6a62de9960001b611d9e565b7fec3c2dedfd3480fd9c86dac2906d9c0f27312110cec440826a6fc175a508f8b68160405161237a9190617942565b60405180910390a150565b6123b17facbb72d5539122cdef5eee5187d1f346a88388ca73c3d985c9672b3ced0c2df060001b611d9e565b6123dd7f2b40417312edc3b8a134f29e11018f4cd5036ca82bee42d8e786fe592d3ae34460001b611d9e565b6124097f23f8e7024802012755795d2c37e779bfc9acce7432bf44ca9b21fb51b176d9bd60001b611d9e565b6124357f627e4db08bbb4a75b58c42a7f20efc5cd666810827964efd641d5b836acd0b4260001b611d9e565b61243d6155af565b73ffffffffffffffffffffffffffffffffffffffff168373ffffffffffffffffffffffffffffffffffffffff16148061248357506124828361247d6155af565b612f0d565b5b6124c2576040517f08c379a00000000000000000000000000000000000000000000000000000000081526004016124b990617a38565b60405180910390fd5b6124ee7f2a7ba59ba438ab7f41b06538b6d97643efc5e3c4afaef2a66271651c8d56866160001b611d9e565b61251a7fef85f538e71c45c79b6d1ccd51232ef0a8317fcdc9a664c56c7ae73e9e28131260001b611d9e565b6125467f8665184117a6e698a0cc4b26548db73a8a113cb8337b14653f46907a6547980960001b611d9e565b60005b825181101561268b5761257e7fb8cedb3516c4b511973a4ccbedae7c519794637fe3f257bf4bb99f8792f9dbc160001b611d9e565b6125aa7f7105be749676dfec1db3bba2054ee4b4b5743526d01e90dc4e883e6208363dc860001b611d9e565b8181815181106125e3577f4e487b7100000000000000000000000000000000000000000000000000000000600052603260045260246000fd5b6020026020010151600660008673ffffffffffffffffffffffffffffffffffffffff1673ffffffffffffffffffffffffffffffffffffffff168152602001908152602001600020546126359190617dcc565b600660008673ffffffffffffffffffffffffffffffffffffffff1673ffffffffffffffffffffffffffffffffffffffff16815260200190815260200160002081905550808061268390617fd4565b915050612549565b506126b87f6ffcc0c453622a29a7e174e5b9463b75c55c46bb5d94beb0789db89ad60f454f60001b611d9e565b6126e47f9c8650a7338e445bdd14609042f55dbb87ec3e0b2757248f8c2827fe39f5f7f960001b611d9e565b6126ef838383615917565b505050565b6126fc6155af565b73ffffffffffffffffffffffffffffffffffffffff1661271a612e85565b73ffffffffffffffffffffffffffffffffffffffff1614612770576040517f08c379a000000000000000000000000000000000000000000000000000000000815260040161276790617b78565b60405180910390fd5b61279c7f02d406ab874f80b21b155c187dad7ab986f6ef67dcb82e72667fb0799041583860001b611d9e565b6127c87fc20fadcecf900fa01edabf12abc583b34762910d083c67113f032cc16f02121160001b611d9e565b6127f47fd04260e9e905f96d18d315619c7fc7223291970313c9ff5e9fa24d1a3af529ac60001b611d9e565b6128207fe56c951e9b3965b350466c40229b0d3d41545eabf39091ea4012a8b9e164370560001b611d9e565b6008548111612864576040517f08c379a000000000000000000000000000000000000000000000000000000000815260040161285b90617c18565b60405180910390fd5b6128907fa22175f6833321bc60762f738be06ef0df54cfb1d5022cfd9f56ef06a16a015b60001b611d9e565b6128bc7f9fe665816584cc259151bdb4df88d38448a70e90a73a17af4c69ca0327c8d16260001b611d9e565b6128e87f2ce53e30ab2e6acdde55bca5f23b05b230bc907ed104f47e0524b15a41285d6f60001b611d9e565b8060088190555061291b7f8821ba0117bec87d1390c1d931b64489d9514957dbc4a743d7bab2a7aad4f66e60001b611d9e565b6129477fb551c6a0c110059e9d5c659d8a710b5743b5f55f7e39af5fa0f6e6ad195269ca60001b611d9e565b7f3f8118fc46e72ecde0c5e090803cad8c88e817b2f1e93e820aa9bfbf51f2468d6008546040516129789190617c38565b60405180910390a150565b61298b6155af565b73ffffffffffffffffffffffffffffffffffffffff166129a9612e85565b73ffffffffffffffffffffffffffffffffffffffff16146129ff576040517f08c379a00000000000000000000000000000000000000000000000000000000081526004016129f690617b78565b60405180910390fd5b612a096000615c14565b565b612a377fdf301782ebb8b18d10c30dad50966f75dd914165dee0dcd128cb46b87ad26e5260001b611d9e565b612a637fb35fa5bb8cede5cf7c762edaaebaebbe75212012f90b4f4e6ba1dfffe0101b3d60001b611d9e565b612a8f7f246b2aaca57b111430efad691032237041edd50d5f003e8ab2ba74f49a7899af60001b611d9e565b612abb7ff7aad32287772ab02fe6e66587149b8796b6fc0d1a64c6dc1c4891c2bf088d7860001b611d9e565b600960009054906101000a900460ff16612b0a576040517f08c379a0000000000000000000000000000000000000000000000000000000008152600401612b0190617b38565b60405180910390fd5b612b367f2f9c2d0fb2a528aa1f9b8d4f656c2f40d5e104c61b894d2a5cdf06ccd8d4a1e060001b611d9e565b612b627f3ec7515beaef3399ec1558094eeaad449a60b811e84d7944848ab3506fc6a45e60001b611d9e565b612b8e7f072d2f8633d86fe0ea859727a1c37857e9a8a94fb2039211a43025fb28ddbd8860001b611d9e565b612bba7fc4afb8b33e33f00efc9ceae314ea7ba3a4c1a67a0612aeb2c31946658a475ef260001b611d9e565b6005600084815260200190815260200160002060009054906101000a900460ff16612c1a576040517f08c379a0000000000000000000000000000000000000000000000000000000008152600401612c1190617b58565b60405180910390fd5b612c467fd3aa7ce9a9ac913618417011fee27647029fb3d8c22e4a4b5d784255398a8b7560001b611d9e565b612c727f4fe1e8a4e3e54f5ae60830644283e145238eb36d3e37a56e20a02c38fd52f4d360001b611d9e565b612c9e7f581d7cb92e1f42dde3b9cec9f0d861b7e623b23beec502f6ac5ef64da83013ae60001b611d9e565b612cca7faba461d6bfcd4cee43b6304428ad67812dcb7fbf0ec6ce8cf8b685021333268c60001b611d9e565b612cd383612eea565b82612cde9190617dcc565b6008541015612d22576040517f08c379a0000000000000000000000000000000000000000000000000000000008152600401612d1990617ad8565b60405180910390fd5b612d4e7fea14fe235a7c5552b3f75373ee8351f34982e939c6f99d84058b1ab58ecf2b3b60001b611d9e565b612d7a7fb5f144e4415eec4bdb1acc6811e54e07913bd555f429b7678c5985897950b1e560001b611d9e565b612da67feac13b103d06d72e9a38eb9cb7029780fe015df0e5a3d6164d2db67f59f986c160001b611d9e565b612db284848484615cda565b50505050565b6000612de67ff182b599cbaaf39630aa81a18ca6ba90d5ab9b9e57e49b7a605fadc4d0a7c31360001b611d9e565b612e127f1a667312ef9403736e76e108ad052ec6cdeea3cbabb36b25a1e05bb18a656bdb60001b611d9e565b612e3e7fb1a9df29903e80a951b3287a3fcea096f035a93cf46a164422c5b93a5ad6aa4c60001b611d9e565b600660008373ffffffffffffffffffffffffffffffffffffffff1673ffffffffffffffffffffffffffffffffffffffff168152602001908152602001600020549050919050565b6000600360009054906101000a900473ffffffffffffffffffffffffffffffffffffffff16905090565b612ec1612eba6155af565b8383615e70565b5050565b600a602052816000526040600020602052806000526040600020600091509150505481565b600060046000838152602001908152602001600020549050919050565b60085481565b6000600160008473ffffffffffffffffffffffffffffffffffffffff1673ffffffffffffffffffffffffffffffffffffffff16815260200190815260200160002060008373ffffffffffffffffffffffffffffffffffffffff1673ffffffffffffffffffffffffffffffffffffffff16815260200190815260200160002060009054906101000a900460ff16905092915050565b612fa96155af565b73ffffffffffffffffffffffffffffffffffffffff16612fc7612e85565b73ffffffffffffffffffffffffffffffffffffffff161461301d576040517f08c379a000000000000000000000000000000000000000000000000000000000815260040161301490617b78565b60405180910390fd5b6130497f2e23bc9727f0f19a8b291e33f27be2736c769f26de0d25062e84abfa30cd159260001b611d9e565b6130757f8d2abf465d2e595b2e8fd2ec92f903b031c817e8f9bf8e26014f1c0d2e82581860001b611d9e565b6130a17f864d0e66ac2457f7ff4dc21eda6e75691acda905708008472b0b92bb5b7d060360001b611d9e565b600960009054906101000a900460ff1615600960006101000a81548160ff0219169083151502179055506130f77f85d9a49e28934e78e4a2a1b2f90ef4c4f857b5b04663cb81d0e00bbc2ea8f4a160001b611d9e565b6131237fc47584d8a24170ddeb0aa052b2b76374c6bf0fcf5e33a4dcd6dfcd336d78e38560001b611d9e565b7faff50328f57c9ced983a9e3c360c67ee11633d860350531f0c11fc435751448c600960009054906101000a900460ff16604051613161919061799b565b60405180910390a1565b6131977f3eeecab7e137154fb85cd2532de82ca0fc8947a8c31d39cc4ba321b2218a3f9860001b611d9e565b6131c37f745f6925c007c8bd03f15923f7ca8b141abd09c193d5f897e8f2637e7be7db8660001b611d9e565b6131ef7f37b7419e522455718676917c27f48164fcf668569cb1275afbe467593a0ac88a60001b611d9e565b61321b7f4b681f675b25d0a63e65a6e41a63367a1a7bddd8c9f884c7d6fe2e9c69bd94f160001b611d9e565b6132236155af565b73ffffffffffffffffffffffffffffffffffffffff168573ffffffffffffffffffffffffffffffffffffffff1614806132695750613268856132636155af565b612f0d565b5b6132a8576040517f08c379a000000000000000000000000000000000000000000000000000000000815260040161329f90617a38565b60405180910390fd5b6132d47f0aa407b48574976f0fe8c838334f7999bb726809ea7567021d053f31d3b4fea760001b611d9e565b6133007f3b3d6095af8be8d9ad9b7d5395285faf9d213cb0468c460b66250ce3c26851b560001b611d9e565b61332c7f8e01b1ea6a14a628952e6678f681eecdfd0fa84afc30a2c07f15692fb3c927e660001b611d9e565b600a60008573ffffffffffffffffffffffffffffffffffffffff1673ffffffffffffffffffffffffffffffffffffffff16815260200190815260200160002060008673ffffffffffffffffffffffffffffffffffffffff1673ffffffffffffffffffffffffffffffffffffffff16815260200190815260200160002054600a60008773ffffffffffffffffffffffffffffffffffffffff1673ffffffffffffffffffffffffffffffffffffffff16815260200190815260200160002060008673ffffffffffffffffffffffffffffffffffffffff1673ffffffffffffffffffffffffffffffffffffffff1681526020019081526020016000205410613839576134577f3e9f9db3c5535f604810ae225f646511726953e4175bf80a6378f6b7a9d6537060001b611d9e565b6134837f4159276a54855671c12d4ea32bdf0e3e1f989b3915640c35b5e4cee3a82d3c2160001b611d9e565b6134af7fe69983d8c4e80019474913234fa73fb2d2f1dfd18ed412ad480b263d0506ed0960001b611d9e565b6134db7fe9e75e13c7c2b5f3e1113c3d8a09d6c36d881ccff0c5a0ab770f5646e91f7b5c60001b611d9e565b81600660008773ffffffffffffffffffffffffffffffffffffffff1673ffffffffffffffffffffffffffffffffffffffff16815260200190815260200160002054101561355d576040517f08c379a000000000000000000000000000000000000000000000000000000000815260040161355490617a18565b60405180910390fd5b6135897ff4b056490d5bc12b29604586771281b4c663f14012fae898e0fc14c98d56fbbe60001b611d9e565b6135b57fac9ec176c27a0658f3ce8a6b6c6717ed6d08f35e67975f51586065481f84f1dc60001b611d9e565b6135e17f972accb31b56634b7a5cc93abdcbdcba831e883a31aeb122797a01f535cfc94f60001b611d9e565b6135ee8585858585615fdd565b61361a7ff79033b80a7f0e9207ce2c5e1913106b44284d47910816a84bd7376fd500e4af60001b611d9e565b6136467f28b11651981514bf70f88123425c3411a990698a3ca6e175dcfbfe711e6b89c260001b611d9e565b81600660008773ffffffffffffffffffffffffffffffffffffffff1673ffffffffffffffffffffffffffffffffffffffff168152602001908152602001600020546136919190617e53565b600660008773ffffffffffffffffffffffffffffffffffffffff1673ffffffffffffffffffffffffffffffffffffffff168152602001908152602001600020819055506137007f035f835a5e5b9ae95d9ffdb94a8ad3d8538f318e9f528d41c6ecd678e09908a960001b611d9e565b61372c7f7f3b07334a824712e93e8bb52223959b509f57a70220af1988610043f706a06560001b611d9e565b81600a60008773ffffffffffffffffffffffffffffffffffffffff1673ffffffffffffffffffffffffffffffffffffffff16815260200190815260200160002060008673ffffffffffffffffffffffffffffffffffffffff1673ffffffffffffffffffffffffffffffffffffffff168152602001908152602001600020546137b49190617dcc565b600a60008773ffffffffffffffffffffffffffffffffffffffff1673ffffffffffffffffffffffffffffffffffffffff16815260200190815260200160002060008673ffffffffffffffffffffffffffffffffffffffff1673ffffffffffffffffffffffffffffffffffffffff1681526020019081526020016000208190555061403c565b6138657ffec4d6d2c775448a3e1a44ff2c5f3e18da9620feafe0d2fcc1b1d766cf9e0f0e60001b611d9e565b6138917f4e4657e6d8a536131d78cc1ed951ad8dd66a79cfd8987a538fac797fe26a8ce960001b611d9e565b6138bd7f7b0cfa4028786c5b5ef344199dc864444dfe81798ef779f34548784a47ba5ab260001b611d9e565b6000600a60008773ffffffffffffffffffffffffffffffffffffffff1673ffffffffffffffffffffffffffffffffffffffff16815260200190815260200160002060008673ffffffffffffffffffffffffffffffffffffffff1673ffffffffffffffffffffffffffffffffffffffff16815260200190815260200160002054600a60008773ffffffffffffffffffffffffffffffffffffffff1673ffffffffffffffffffffffffffffffffffffffff16815260200190815260200160002060008873ffffffffffffffffffffffffffffffffffffffff1673ffffffffffffffffffffffffffffffffffffffff168152602001908152602001600020546139c39190617e53565b90506139f17f2040d75a3191f634cb82d9bebed0474b183f70582ac05b9cd665cccd848172e360001b611d9e565b613a1d7fd60426f5b4716119a8eceeaa72f7201130a2a203d112467c9127f518e084a2ae60001b611d9e565b808310613e4857613a507f36b66bc238a8fcd21b243461fc886d2ff8be61badbc0e36480752eb0a78b6ad160001b611d9e565b613a7c7f839830555aa27908e4b97475a01bf9fe0ccf766d7aa66708f699434e0627e2b660001b611d9e565b613aa87f049b483050b2506b4c0a276d67b54af336bbbc4a0636c939e1d31f237ddcd4a060001b611d9e565b613ad47f6c12035fafd9d9c93c642a7ca67b68b5406aabf00d5087750610fe7d7d4a86d760001b611d9e565b80600660008873ffffffffffffffffffffffffffffffffffffffff1673ffffffffffffffffffffffffffffffffffffffff16815260200190815260200160002054613b1f9190617dcc565b831115613b61576040517f08c379a0000000000000000000000000000000000000000000000000000000008152600401613b5890617a18565b60405180910390fd5b613b8d7fdb89bd157995b57060e0874c475a27c7b6e6725b419e618b89926043f79037f660001b611d9e565b613bb97fb6b8bbf4fbf6458eceaa31e54538242946935c92c6d73cb7aae1126a5029c53d60001b611d9e565b613be57f28413c637baa6e54faa2228c0582ffe71e2227f90707336c1c586079655076d960001b611d9e565b613bf28686868686615fdd565b613c1e7ffa0adb15e579b9f47853980546ca020e5c9263ffdcb120695a26b6af5dfdb51260001b611d9e565b613c4a7f0ab1bd6a7e87474799a2266628c3218c3cea7d4def5f09fbdb65f4d58302ed4360001b611d9e565b8083613c569190617e53565b600660008873ffffffffffffffffffffffffffffffffffffffff1673ffffffffffffffffffffffffffffffffffffffff16815260200190815260200160002054613ca09190617e53565b600660008873ffffffffffffffffffffffffffffffffffffffff1673ffffffffffffffffffffffffffffffffffffffff16815260200190815260200160002081905550613d0f7fd517efeda8a0b1ea00e172685d50831e8e3119fdf5ccac5f6ac65c8d5d5e232a60001b611d9e565b613d3b7f9bf5a7fe3b3248240663d9892b51bf5d419b51f19c52e9104a961b4c6328147060001b611d9e565b82600a60008873ffffffffffffffffffffffffffffffffffffffff1673ffffffffffffffffffffffffffffffffffffffff16815260200190815260200160002060008773ffffffffffffffffffffffffffffffffffffffff1673ffffffffffffffffffffffffffffffffffffffff16815260200190815260200160002054613dc39190617dcc565b600a60008873ffffffffffffffffffffffffffffffffffffffff1673ffffffffffffffffffffffffffffffffffffffff16815260200190815260200160002060008773ffffffffffffffffffffffffffffffffffffffff1673ffffffffffffffffffffffffffffffffffffffff1681526020019081526020016000208190555061403a565b613e747f7dcd48de3312551c171835b02a575a6c445f21dd97d5bbe6493dc855590d3c4560001b611d9e565b613ea07f42d3f1b37c473adbcc85d9c9257f3fea362c30283c246803a196167c5a44faa660001b611d9e565b613ecc7f3167b4931180a58f0f91ef7296b65e26dba7f06deeaa7cbe694467c04fa13a1d60001b611d9e565b613ed98686868686615fdd565b613f057f136dc16d2cab080295e0c5012f423193041ec0f808ee37216820def18023e16260001b611d9e565b613f317ffa2190b85b9a4e3cdfaa57e808f1a7e627c160e823b0daaefdd75e190b95dd4760001b611d9e565b82600a60008873ffffffffffffffffffffffffffffffffffffffff1673ffffffffffffffffffffffffffffffffffffffff16815260200190815260200160002060008773ffffffffffffffffffffffffffffffffffffffff1673ffffffffffffffffffffffffffffffffffffffff16815260200190815260200160002054613fb99190617dcc565b600a60008873ffffffffffffffffffffffffffffffffffffffff1673ffffffffffffffffffffffffffffffffffffffff16815260200190815260200160002060008773ffffffffffffffffffffffffffffffffffffffff1673ffffffffffffffffffffffffffffffffffffffff168152602001908152602001600020819055505b505b5050505050565b61404b6155af565b73ffffffffffffffffffffffffffffffffffffffff16614069612e85565b73ffffffffffffffffffffffffffffffffffffffff16146140bf576040517f08c379a00000000000000000000000000000000000000000000000000000000081526004016140b690617b78565b60405180910390fd5b600073ffffffffffffffffffffffffffffffffffffffff168173ffffffffffffffffffffffffffffffffffffffff16141561412f576040517f08c379a000000000000000000000000000000000000000000000000000000000815260040161412690617a78565b60405180910390fd5b61413881615c14565b50565b6141677f6987f762dadfe909138880c26bcf3cafce8c1711845b772157f349221eefb11560001b611d9e565b6141937f85e1a322b8f2a975428b7fb48340ddbe020c646003a3caa83e797f488605cc7760001b611d9e565b6141bf7f2925c8caa2df2e945751c6db7c32ee9f41d9860ac8e2db48bc0fcee8248f307d60001b611d9e565b6141eb7f5bba193d20753d77fb2c8750f56ef3821a6d6478892b424ef5110c05aa02e5a260001b611d9e565b6141f36155af565b73ffffffffffffffffffffffffffffffffffffffff168373ffffffffffffffffffffffffffffffffffffffff1614806142395750614238836142336155af565b612f0d565b5b614278576040517f08c379a000000000000000000000000000000000000000000000000000000000815260040161426f90617a38565b60405180910390fd5b6142a47fdb058573157d91bbce9fd6b46928fe213fbf9e505d98a3abcc6c684758b698a660001b611d9e565b6142d07f5b819b8503b20d5c4c713102f2f1b9a0dbfbeedf421dda0e7d767ae30feae83a60001b611d9e565b6142fc7f166e9683fa1186c7532ce86ef526d6ca68c448e53e333433113686cac5c7255660001b611d9e565b80600660008573ffffffffffffffffffffffffffffffffffffffff1673ffffffffffffffffffffffffffffffffffffffff168152602001908152602001600020546143479190617dcc565b600660008573ffffffffffffffffffffffffffffffffffffffff1673ffffffffffffffffffffffffffffffffffffffff168152602001908152602001600020819055506143b67fe22136b8492a75db833c8953e4492af5dce679a3bfc75b3a9af95d9090ff350d60001b611d9e565b6143e27fbeea80a89fb3d75f32800ec049675d89cb62e1a30f6a3ed90db5c4273284b22f60001b611d9e565b6143ed83838361625f565b505050565b60006144207f86dc12468a97ad7d3a5769ff2d02bc6baed69443a4f3cbc9d045b2468dbc946d60001b611d9e565b61444c7fd6e1a97f35ef8cec3ecaf2c7d0bd64c01b4aa83b2d638df65508d9a34ba750e760001b611d9e565b6144787f2aa9f526e5a1429572a52acbe58bfdfe229e2618ea0135c98d98b0c132927f0260001b611d9e565b6005600083815260200190815260200160002060009054906101000a900460ff169050919050565b60007f01ffc9a7000000000000000000000000000000000000000000000000000000007bffffffffffffffffffffffffffffffffffffffffffffffffffffffff1916827bffffffffffffffffffffffffffffffffffffffffffffffffffffffff1916149050919050565b60606145387f4b8608c769aa53481740eb05f83c8084d078cd4da3f66a25a247375f0b24cdaa60001b61647c565b6145647f56e8926e87811a8b042797fb48843040f4024ae001a66713a903f25cfdf5f41960001b61647c565b6145907f3a7839055e3ed5bd80604c4056db2dffd81df37d50af34902a306745a500008960001b61647c565b600082141561465a576145c57f2af7478e49c48e7ad807b759a3c6f27c442a2a49617fbcedb0c95565e3ffd70860001b61647c565b6145f17f311289e4bdd6777e2b61adb815d61c16b9453343f1511d3b79f48b31b03ebb5d60001b61647c565b61461d7f33c2a3d38a1c51e9f94e072d478b546a8efabd5bbc857e31f5af0c7d3480e50260001b61647c565b6040518060400160405280600181526020017f30000000000000000000000000000000000000000000000000000000000000008152509050614be0565b6146867f8d91d2d03ff989e6673ad124483e0bcc798c6ace117648dfdce5a4d6d3040ae160001b61647c565b6146b27f48c37760fa503ee7de8a78c227a20ecaed752e48e622159ac2c89e06e73742ea60001b61647c565b6146de7f8dda5833edfdfd3e8430a651813c90c6ed28eeba61caeac78328481f5e2ddd2760001b61647c565b600082905061470f7fc2d5b56a478b01a8d11e03e01442c404cee79aa9613c732f39d04b57e7ab491160001b61647c565b61473b7f6ee4f67eb544c291dddc30f558c0b25414b259fb2565eb22d7eb90ca5a77f9ba60001b61647c565b60006147697f0c0cf2e509160e1ef105e075c24d4158be1ef8827384949b2e78f7fd0ed5100d60001b61647c565b6147957f0b9ef017bb8025a88d79451c620c72ccde0f49091bfd1d49287a6029e28dc43f60001b61647c565b5b60008214614844576147ca7f6d3fc8251a53c62d5711b0e9d902a85483bef662dc87beba90b2de47e34bfd2260001b61647c565b80806147d590617fd4565b9150506148047f33439cb72d2155a65f2eec22e8b3d14518aefed50da8606b003ae2c86a255e1660001b61647c565b6148307fce7474cbeacf85728c63c8f06f39b1b7066a219d7b7f6e0ed4c399417d235e5260001b61647c565b600a8261483d9190617e22565b9150614796565b6148707f3205ae722c9eb3cadaf0398e0ae4aa676c37afe4315848a4a8bbe5b79536948f60001b61647c565b61489c7fc7d84f4d0e211bdb1cf82e2a0cc63766a3bc7291527a99e76cff4fac585ad15e60001b61647c565b60008167ffffffffffffffff8111156148de577f4e487b7100000000000000000000000000000000000000000000000000000000600052604160045260246000fd5b6040519080825280601f01601f1916602001820160405280156149105781602001600182028036833780820191505090505b50905061493f7f6792621da04b25d5c3c04cb548ffeef20c5d763dfd0f6f48e1f078ec9578334760001b61647c565b61496b7f8d014ad0403858026d3f05e14908c76777c2e50cff0961d4a1ab7943e263156d60001b61647c565b600082905061499c7faa8d576af211fab59344cb6e8c51bfb79ab4c4741ce67852deb7e714e85cf1fc60001b61647c565b6149c87f2e2ada24f40239b8dbee718ad25372a00ec4208bc35d0ffe640a1172bda3321b60001b61647c565b8593506149f77f970c490f163313f933b9d64d5b920ae3b449eeace10b09dd12365248ff77507360001b61647c565b614a237fb12ee54a947f4c8cc1492c1b1b2ece2d1f6b6153c685a7f6d4e0b92cb91a28e860001b61647c565b5b60008414614b8057614a587f59b98619ddd34dec1d41e004bc6b5e6bd9281b8ce322a73005f783c12550de3660001b61647c565b614a847f927d83a49a7d30749328e202ce6e4d5cfa31d7c8cdcd3739229bb6ca84c36fc660001b61647c565b600a84614a91919061801d565b6030614a9d9190617dcc565b60f81b8282614aab90617f47565b92508281518110614ae5577f4e487b7100000000000000000000000000000000000000000000000000000000600052603260045260246000fd5b60200101907effffffffffffffffffffffffffffffffffffffffffffffffffffffffffffff1916908160001a905350614b407fe20a44037d75ab960c1bc900262ba383497a6dae2c30e1b0a680189e8bbf19cb60001b61647c565b614b6c7fa1e6eabd5d4bc148d3ecb3671e143861f0f5a7cf10255fbefabe81923983e8fe60001b61647c565b600a84614b799190617e22565b9350614a24565b614bac7f8d3650536df1bae3de3884d2d2241134211ebcc04e9103bc2630a7ad99690af760001b61647c565b614bd87f62e39f5758aa2142b20d6fd7a3a5060712a332ccf94e35b75dacd7dc1642a87e60001b61647c565b819450505050505b919050565b6060614c137f35a7542d06e0821f9c2d61e904b659c25930f9782aa40b5382842be71a8922c360001b61647c565b614c3f7ff7e0348bda51525eabbc638fe60f65a68d7393d1a430d95986f630c8f59ab03b60001b61647c565b614c6b7f78fb8515220a2118acc61a94a4baed3e87ce21262980762066b6fded4bbdad1e60001b61647c565b6000849050614c9c7f7f75b99c3c16dcd06d387b59fa21283e2fb20f235db5a0719817f6a79f1b79f860001b61647c565b614cc87f118fc457291994232b4ef24d3896cb7f91f0aa9112729121e7ded3988600c2c660001b61647c565b6000849050614cf97f1042a9910679878631cdadab838e521f832230566887106d0644baaf111e3c4460001b61647c565b614d257fb8dfd967fb9ad8199f083da905bfb30864e10d4b28134c83431f62c8b4d1db9b60001b61647c565b6000849050614d567f0529ecd3f9853a9857fbf25150a787d916be01459601992e9718453f1af493ae60001b61647c565b614d827fbd581fda4ccb8d7a0a45c1e97c08e482aae34746685b0334db2292d23c5b843160001b61647c565b6000815183518551614d949190617dcc565b614d9e9190617dcc565b67ffffffffffffffff811115614ddd577f4e487b7100000000000000000000000000000000000000000000000000000000600052604160045260246000fd5b6040519080825280601f01601f191660200182016040528015614e0f5781602001600182028036833780820191505090505b509050614e3e7fcdd07009a4554a7aa7d5cd925c6279a1d9677b743040d6c1f3293c6a2d44c65060001b61647c565b614e6a7ffd95a55329d51d2232eb04e1840e37db3c1b15677039926a5a14adcbcc1ea5ad60001b61647c565b6000819050614e9b7f6de169f8173926c21d0ea3c95edbafae9103cec154b34b141afd8121f98e912f60001b61647c565b614ec77fa82204b7deef27a50a105d94c29e08ab84430c00e36a8ad86db344073b11db0b60001b61647c565b6000614ef57f2a01e9d0e697e12f638f15cab8a90b722da2fdb8ac5ba69e34d87b933c60f6ef60001b61647c565b614f217f0ffe4c335539b7991a12693f7ccec6e98b283e550433c17e1d744136118f1ad260001b61647c565b60005b865181101561502457614f597ff275ce707a87ad89e21cb204b8cc4c22b082be0c7de7743bc282e93df5f0af5d60001b61647c565b868181518110614f92577f4e487b7100000000000000000000000000000000000000000000000000000000600052603260045260246000fd5b602001015160f81c60f81b838380614fa990617fd4565b945081518110614fe2577f4e487b7100000000000000000000000000000000000000000000000000000000600052603260045260246000fd5b60200101907effffffffffffffffffffffffffffffffffffffffffffffffffffffffffffff1916908160001a905350808061501c90617fd4565b915050614f24565b506150517f041dd3c5d8c6a1b3387c584e758fc87506fd67d3cea7b42bf8313a55d99c74c060001b61647c565b61507d7f17de5b0d4bbc26d67382aeae7da6fa2c92bbf05b1e12a8c0668e96252f68822660001b61647c565b60005b8551811015615180576150b57fdde3024615799f782e38b8b62cf5a76635999a6735e2dd9d223b5a9483ceb00f60001b61647c565b8581815181106150ee577f4e487b7100000000000000000000000000000000000000000000000000000000600052603260045260246000fd5b602001015160f81c60f81b83838061510590617fd4565b94508151811061513e577f4e487b7100000000000000000000000000000000000000000000000000000000600052603260045260246000fd5b60200101907effffffffffffffffffffffffffffffffffffffffffffffffffffffffffffff1916908160001a905350808061517890617fd4565b915050615080565b506151ad7ff3cb3874476dab087208967622bb0729c09ef8ef8803a3d1bfa512f73faaf29060001b61647c565b6151d97f936dd8cdab8a8259ae5c9ada6cfb66dad774a3c959d8e6c3c9dd3efcc5f4175e60001b61647c565b60005b84518110156152dc576152117fe740d64a8cfb972cfa61f3d275f6b62d1e437951eef7aa318e98f1238f17bf1c60001b61647c565b84818151811061524a577f4e487b7100000000000000000000000000000000000000000000000000000000600052603260045260246000fd5b602001015160f81c60f81b83838061526190617fd4565b94508151811061529a577f4e487b7100000000000000000000000000000000000000000000000000000000600052603260045260246000fd5b60200101907effffffffffffffffffffffffffffffffffffffffffffffffffffffffffffff1916908160001a90535080806152d490617fd4565b9150506151dc565b506153097ff15190857b636d32f8f01b474243077bb1aa586820ca80408d7e74e2300edd1760001b61647c565b6153357f4b5388ef46f766a3026b1ac796460798b668bacbe6fef610dd9af064dbbe36ee60001b61647c565b8196505050505050509392505050565b600073ffffffffffffffffffffffffffffffffffffffff168473ffffffffffffffffffffffffffffffffffffffff1614156153b5576040517f08c379a00000000000000000000000000000000000000000000000000000000081526004016153ac90617bf8565b60405180910390fd5b81518351146153f9576040517f08c379a00000000000000000000000000000000000000000000000000000000081526004016153f090617bd8565b60405180910390fd5b60006154036155af565b90506154148160008787878761647f565b60005b845181101561551957838181518110615459577f4e487b7100000000000000000000000000000000000000000000000000000000600052603260045260246000fd5b602002602001015160008087848151811061549d577f4e487b7100000000000000000000000000000000000000000000000000000000600052603260045260246000fd5b6020026020010151815260200190815260200160002060008873ffffffffffffffffffffffffffffffffffffffff1673ffffffffffffffffffffffffffffffffffffffff16815260200190815260200160002060008282546154ff9190617dcc565b92505081905550808061551190617fd4565b915050615417565b508473ffffffffffffffffffffffffffffffffffffffff16600073ffffffffffffffffffffffffffffffffffffffff168273ffffffffffffffffffffffffffffffffffffffff167f4a39dc06d4c0dbc64b70af90fd698a233a518aa5d07e595d983b8c0526c8f7fb8787604051615591929190617964565b60405180910390a46155a881600087878787616519565b5050505050565b600033905090565b81518351146155fb576040517f08c379a00000000000000000000000000000000000000000000000000000000081526004016155f290617bd8565b60405180910390fd5b600073ffffffffffffffffffffffffffffffffffffffff168473ffffffffffffffffffffffffffffffffffffffff16141561566b576040517f08c379a000000000000000000000000000000000000000000000000000000000815260040161566290617ab8565b60405180910390fd5b60006156756155af565b905061568581878787878761647f565b60005b84518110156158825760008582815181106156cc577f4e487b7100000000000000000000000000000000000000000000000000000000600052603260045260246000fd5b602002602001015190506000858381518110615711577f4e487b7100000000000000000000000000000000000000000000000000000000600052603260045260246000fd5b60200260200101519050600080600084815260200190815260200160002060008b73ffffffffffffffffffffffffffffffffffffffff1673ffffffffffffffffffffffffffffffffffffffff168152602001908152602001600020549050818110156157b2576040517f08c379a00000000000000000000000000000000000000000000000000000000081526004016157a990617b18565b60405180910390fd5b81810360008085815260200190815260200160002060008c73ffffffffffffffffffffffffffffffffffffffff1673ffffffffffffffffffffffffffffffffffffffff168152602001908152602001600020819055508160008085815260200190815260200160002060008b73ffffffffffffffffffffffffffffffffffffffff1673ffffffffffffffffffffffffffffffffffffffff16815260200190815260200160002060008282546158679190617dcc565b925050819055505050508061587b90617fd4565b9050615688565b508473ffffffffffffffffffffffffffffffffffffffff168673ffffffffffffffffffffffffffffffffffffffff168273ffffffffffffffffffffffffffffffffffffffff167f4a39dc06d4c0dbc64b70af90fd698a233a518aa5d07e595d983b8c0526c8f7fb87876040516158f9929190617964565b60405180910390a461590f818787878787616519565b505050505050565b600073ffffffffffffffffffffffffffffffffffffffff168373ffffffffffffffffffffffffffffffffffffffff161415615987576040517f08c379a000000000000000000000000000000000000000000000000000000000815260040161597e90617af8565b60405180910390fd5b80518251146159cb576040517f08c379a00000000000000000000000000000000000000000000000000000000081526004016159c290617bd8565b60405180910390fd5b60006159d56155af565b90506159f58185600086866040518060200160405280600081525061647f565b60005b8351811015615b8e576000848281518110615a3c577f4e487b7100000000000000000000000000000000000000000000000000000000600052603260045260246000fd5b602002602001015190506000848381518110615a81577f4e487b7100000000000000000000000000000000000000000000000000000000600052603260045260246000fd5b60200260200101519050600080600084815260200190815260200160002060008973ffffffffffffffffffffffffffffffffffffffff1673ffffffffffffffffffffffffffffffffffffffff16815260200190815260200160002054905081811015615b22576040517f08c379a0000000000000000000000000000000000000000000000000000000008152600401615b1990617a98565b60405180910390fd5b81810360008085815260200190815260200160002060008a73ffffffffffffffffffffffffffffffffffffffff1673ffffffffffffffffffffffffffffffffffffffff168152602001908152602001600020819055505050508080615b8690617fd4565b9150506159f8565b50600073ffffffffffffffffffffffffffffffffffffffff168473ffffffffffffffffffffffffffffffffffffffff168273ffffffffffffffffffffffffffffffffffffffff167f4a39dc06d4c0dbc64b70af90fd698a233a518aa5d07e595d983b8c0526c8f7fb8686604051615c06929190617964565b60405180910390a450505050565b6000600360009054906101000a900473ffffffffffffffffffffffffffffffffffffffff16905081600360006101000a81548173ffffffffffffffffffffffffffffffffffffffff021916908373ffffffffffffffffffffffffffffffffffffffff1602179055508173ffffffffffffffffffffffffffffffffffffffff168173ffffffffffffffffffffffffffffffffffffffff167f8be0079c531659141344cd1fd0a4f28419497f9722a3daafe3b4186f6b6457e060405160405180910390a35050565b600073ffffffffffffffffffffffffffffffffffffffff168473ffffffffffffffffffffffffffffffffffffffff161415615d4a576040517f08c379a0000000000000000000000000000000000000000000000000000000008152600401615d4190617bf8565b60405180910390fd5b6000615d546155af565b9050615d7581600087615d6688616700565b615d6f88616700565b8761647f565b8260008086815260200190815260200160002060008773ffffffffffffffffffffffffffffffffffffffff1673ffffffffffffffffffffffffffffffffffffffff1681526020019081526020016000206000828254615dd49190617dcc565b925050819055508473ffffffffffffffffffffffffffffffffffffffff16600073ffffffffffffffffffffffffffffffffffffffff168273ffffffffffffffffffffffffffffffffffffffff167fc3d58168c5ae7397731d063d5bbf3d657854427343f4c083240f7aacaa2d0f628787604051615e52929190617c53565b60405180910390a4615e69816000878787876167c6565b5050505050565b8173ffffffffffffffffffffffffffffffffffffffff168373ffffffffffffffffffffffffffffffffffffffff161415615edf576040517f08c379a0000000000000000000000000000000000000000000000000000000008152600401615ed690617b98565b60405180910390fd5b80600160008573ffffffffffffffffffffffffffffffffffffffff1673ffffffffffffffffffffffffffffffffffffffff16815260200190815260200160002060008473ffffffffffffffffffffffffffffffffffffffff1673ffffffffffffffffffffffffffffffffffffffff16815260200190815260200160002060006101000a81548160ff0219169083151502179055508173ffffffffffffffffffffffffffffffffffffffff168373ffffffffffffffffffffffffffffffffffffffff167f17307eab39ab6107e8899845ad3d59bd9653f200f220920489ca2b5937696c3183604051615fd0919061799b565b60405180910390a3505050565b600073ffffffffffffffffffffffffffffffffffffffff168473ffffffffffffffffffffffffffffffffffffffff16141561604d576040517f08c379a000000000000000000000000000000000000000000000000000000000815260040161604490617ab8565b60405180910390fd5b60006160576155af565b905061607781878761606888616700565b61607188616700565b8761647f565b600080600086815260200190815260200160002060008873ffffffffffffffffffffffffffffffffffffffff1673ffffffffffffffffffffffffffffffffffffffff1681526020019081526020016000205490508381101561610e576040517f08c379a000000000000000000000000000000000000000000000000000000000815260040161610590617b18565b60405180910390fd5b83810360008087815260200190815260200160002060008973ffffffffffffffffffffffffffffffffffffffff1673ffffffffffffffffffffffffffffffffffffffff168152602001908152602001600020819055508360008087815260200190815260200160002060008873ffffffffffffffffffffffffffffffffffffffff1673ffffffffffffffffffffffffffffffffffffffff16815260200190815260200160002060008282546161c39190617dcc565b925050819055508573ffffffffffffffffffffffffffffffffffffffff168773ffffffffffffffffffffffffffffffffffffffff168373ffffffffffffffffffffffffffffffffffffffff167fc3d58168c5ae7397731d063d5bbf3d657854427343f4c083240f7aacaa2d0f628888604051616240929190617c53565b60405180910390a46162568288888888886167c6565b50505050505050565b600073ffffffffffffffffffffffffffffffffffffffff168373ffffffffffffffffffffffffffffffffffffffff1614156162cf576040517f08c379a00000000000000000000000000000000000000000000000000000000081526004016162c690617af8565b60405180910390fd5b60006162d96155af565b9050616309818560006162eb87616700565b6162f487616700565b6040518060200160405280600081525061647f565b600080600085815260200190815260200160002060008673ffffffffffffffffffffffffffffffffffffffff1673ffffffffffffffffffffffffffffffffffffffff168152602001908152602001600020549050828110156163a0576040517f08c379a000000000000000000000000000000000000000000000000000000000815260040161639790617a98565b60405180910390fd5b82810360008086815260200190815260200160002060008773ffffffffffffffffffffffffffffffffffffffff1673ffffffffffffffffffffffffffffffffffffffff16815260200190815260200160002081905550600073ffffffffffffffffffffffffffffffffffffffff168573ffffffffffffffffffffffffffffffffffffffff168373ffffffffffffffffffffffffffffffffffffffff167fc3d58168c5ae7397731d063d5bbf3d657854427343f4c083240f7aacaa2d0f62878760405161646d929190617c53565b60405180910390a45050505050565b50565b6164ab7fd024d8ebc64cb87aa69cf276d3012c0934b47db355d8799f56bf0d2938b1ac3460001b611d9e565b6164d77fe90c577d4532f007c14d0b576512b102f34c21699adf2d9bd406bfae35e24f8860001b611d9e565b6165037f26f31a2a63f50f54d625a258bf1cb1bda01a888683ebdd2462db6090efb4a9dc60001b611d9e565b6165118686868686866169ad565b505050505050565b6165388473ffffffffffffffffffffffffffffffffffffffff16616bbf565b156166f8578373ffffffffffffffffffffffffffffffffffffffff1663bc197c8187878686866040518663ffffffff1660e01b815260040161657e959493929190617880565b602060405180830381600087803b15801561659857600080fd5b505af19250505080156165c957506040513d601f19601f820116820180604052508101906165c69190617415565b60015b61666f576165d561810a565b806308c379a0141561663257506165ea61861d565b806165f55750616634565b806040517f08c379a000000000000000000000000000000000000000000000000000000000815260040161662991906179b6565b60405180910390fd5b505b6040517f08c379a0000000000000000000000000000000000000000000000000000000008152600401616666906179d8565b60405180910390fd5b63bc197c8160e01b7bffffffffffffffffffffffffffffffffffffffffffffffffffffffff1916817bffffffffffffffffffffffffffffffffffffffffffffffffffffffff1916146166f6576040517f08c379a00000000000000000000000000000000000000000000000000000000081526004016166ed906179f8565b60405180910390fd5b505b505050505050565b60606000600167ffffffffffffffff811115616745577f4e487b7100000000000000000000000000000000000000000000000000000000600052604160045260246000fd5b6040519080825280602002602001820160405280156167735781602001602082028036833780820191505090505b50905082816000815181106167b1577f4e487b7100000000000000000000000000000000000000000000000000000000600052603260045260246000fd5b60200260200101818152505080915050919050565b6167e58473ffffffffffffffffffffffffffffffffffffffff16616bbf565b156169a5578373ffffffffffffffffffffffffffffffffffffffff1663f23a6e6187878686866040518663ffffffff1660e01b815260040161682b9594939291906178e8565b602060405180830381600087803b15801561684557600080fd5b505af192505050801561687657506040513d601f19601f820116820180604052508101906168739190617415565b60015b61691c5761688261810a565b806308c379a014156168df575061689761861d565b806168a257506168e1565b806040517f08c379a00000000000000000000000000000000000000000000000000000000081526004016168d691906179b6565b60405180910390fd5b505b6040517f08c379a0000000000000000000000000000000000000000000000000000000008152600401616913906179d8565b60405180910390fd5b63f23a6e6160e01b7bffffffffffffffffffffffffffffffffffffffffffffffffffffffff1916817bffffffffffffffffffffffffffffffffffffffffffffffffffffffff1916146169a3576040517f08c379a000000000000000000000000000000000000000000000000000000000815260040161699a906179f8565b60405180910390fd5b505b505050505050565b6169bb868686868686616bd2565b600073ffffffffffffffffffffffffffffffffffffffff168573ffffffffffffffffffffffffffffffffffffffff161415616ab95760005b8351811015616ab757828181518110616a35577f4e487b7100000000000000000000000000000000000000000000000000000000600052603260045260246000fd5b602002602001015160046000868481518110616a7a577f4e487b7100000000000000000000000000000000000000000000000000000000600052603260045260246000fd5b602002602001015181526020019081526020016000206000828254616a9f9190617dcc565b9250508190555080616ab090617fd4565b90506169f3565b505b600073ffffffffffffffffffffffffffffffffffffffff168473ffffffffffffffffffffffffffffffffffffffff161415616bb75760005b8351811015616bb557828181518110616b33577f4e487b7100000000000000000000000000000000000000000000000000000000600052603260045260246000fd5b602002602001015160046000868481518110616b78577f4e487b7100000000000000000000000000000000000000000000000000000000600052603260045260246000fd5b602002602001015181526020019081526020016000206000828254616b9d9190617e53565b9250508190555080616bae90617fd4565b9050616af1565b505b505050505050565b600080823b905060008111915050919050565b505050505050565b828054616be690617f71565b90600052602060002090601f016020900481019282616c085760008555616c4f565b82601f10616c2157805160ff1916838001178555616c4f565b82800160010185558215616c4f579182015b82811115616c4e578251825591602001919060010190616c33565b5b509050616c5c9190616c60565b5090565b5b80821115616c79576000816000905550600101616c61565b5090565b6000616c90616c8b84617ca1565b617c7c565b90508083825260208201905082856020860282011115616caf57600080fd5b60005b85811015616cdf5781616cc58882616dd1565b845260208401935060208301925050600181019050616cb2565b5050509392505050565b6000616cfc616cf784617ccd565b617c7c565b90508083825260208201905082856020860282011115616d1b57600080fd5b60005b85811015616d4b5781616d318882616ee2565b845260208401935060208301925050600181019050616d1e565b5050509392505050565b6000616d68616d6384617cf9565b617c7c565b905082815260208101848484011115616d8057600080fd5b616d8b848285617f05565b509392505050565b6000616da6616da184617d2a565b617c7c565b905082815260208101848484011115616dbe57600080fd5b616dc9848285617f05565b509392505050565b600081359050616de0816186b3565b92915050565b600082601f830112616df757600080fd5b8135616e07848260208601616c7d565b91505092915050565b600082601f830112616e2157600080fd5b8135616e31848260208601616ce9565b91505092915050565b600081359050616e49816186ca565b92915050565b600081359050616e5e816186e1565b92915050565b600081359050616e73816186f8565b92915050565b600081519050616e88816186f8565b92915050565b600082601f830112616e9f57600080fd5b8135616eaf848260208601616d55565b91505092915050565b600082601f830112616ec957600080fd5b8135616ed9848260208601616d93565b91505092915050565b600081359050616ef18161870f565b92915050565b600060208284031215616f0957600080fd5b6000616f1784828501616dd1565b91505092915050565b60008060408385031215616f3357600080fd5b6000616f4185828601616dd1565b9250506020616f5285828601616dd1565b9150509250929050565b600080600080600060a08688031215616f7457600080fd5b6000616f8288828901616dd1565b9550506020616f9388828901616dd1565b945050604086013567ffffffffffffffff811115616fb057600080fd5b616fbc88828901616e10565b935050606086013567ffffffffffffffff811115616fd957600080fd5b616fe588828901616e10565b925050608086013567ffffffffffffffff81111561700257600080fd5b61700e88828901616e8e565b9150509295509295909350565b600080600080600060a0868803121561703357600080fd5b600061704188828901616dd1565b955050602061705288828901616dd1565b945050604061706388828901616ee2565b935050606061707488828901616ee2565b925050608086013567ffffffffffffffff81111561709157600080fd5b61709d88828901616e8e565b9150509295509295909350565b6000806000606084860312156170bf57600080fd5b60006170cd86828701616dd1565b935050602084013567ffffffffffffffff8111156170ea57600080fd5b6170f686828701616e10565b925050604084013567ffffffffffffffff81111561711357600080fd5b61711f86828701616e10565b9150509250925092565b6000806000806080858703121561713f57600080fd5b600061714d87828801616dd1565b945050602085013567ffffffffffffffff81111561716a57600080fd5b61717687828801616e10565b935050604085013567ffffffffffffffff81111561719357600080fd5b61719f87828801616e10565b925050606085013567ffffffffffffffff8111156171bc57600080fd5b6171c887828801616e8e565b91505092959194509250565b600080604083850312156171e757600080fd5b60006171f585828601616dd1565b925050602061720685828601616e3a565b9150509250929050565b6000806040838503121561722357600080fd5b600061723185828601616dd1565b925050602061724285828601616ee2565b9150509250929050565b60008060006060848603121561726157600080fd5b600061726f86828701616dd1565b935050602061728086828701616ee2565b925050604061729186828701616ee2565b9150509250925092565b600080600080608085870312156172b157600080fd5b60006172bf87828801616dd1565b94505060206172d087828801616ee2565b93505060406172e187828801616ee2565b925050606085013567ffffffffffffffff8111156172fe57600080fd5b61730a87828801616e8e565b91505092959194509250565b6000806040838503121561732957600080fd5b600083013567ffffffffffffffff81111561734357600080fd5b61734f85828601616de6565b925050602083013567ffffffffffffffff81111561736c57600080fd5b61737885828601616e10565b9150509250929050565b60006020828403121561739457600080fd5b600082013567ffffffffffffffff8111156173ae57600080fd5b6173ba84828501616e10565b91505092915050565b6000602082840312156173d557600080fd5b60006173e384828501616e4f565b91505092915050565b6000602082840312156173fe57600080fd5b600061740c84828501616e64565b91505092915050565b60006020828403121561742757600080fd5b600061743584828501616e79565b91505092915050565b60006020828403121561745057600080fd5b600082013567ffffffffffffffff81111561746a57600080fd5b61747684828501616eb8565b91505092915050565b60006020828403121561749157600080fd5b600061749f84828501616ee2565b91505092915050565b60006174b48383617847565b60208301905092915050565b6174c981617e87565b82525050565b60006174da82617d6b565b6174e48185617d99565b93506174ef83617d5b565b8060005b8381101561752057815161750788826174a8565b975061751283617d8c565b9250506001810190506174f3565b5085935050505092915050565b61753681617e99565b82525050565b600061754782617d76565b6175518185617daa565b9350617561818560208601617f14565b61756a8161812c565b840191505092915050565b600061758082617d81565b61758a8185617dbb565b935061759a818560208601617f14565b6175a38161812c565b840191505092915050565b60006175bb603483617dbb565b91506175c68261814a565b604082019050919050565b60006175de602883617dbb565b91506175e982618199565b604082019050919050565b6000617601601a83617dbb565b915061760c826181e8565b602082019050919050565b6000617624601c83617dbb565b915061762f82618211565b602082019050919050565b6000617647602b83617dbb565b91506176528261823a565b604082019050919050565b600061766a602683617dbb565b915061767582618289565b604082019050919050565b600061768d602483617dbb565b9150617698826182d8565b604082019050919050565b60006176b0602583617dbb565b91506176bb82618327565b604082019050919050565b60006176d3601983617dbb565b91506176de82618376565b602082019050919050565b60006176f6602383617dbb565b91506177018261839f565b604082019050919050565b6000617719602a83617dbb565b9150617724826183ee565b604082019050919050565b600061773c600e83617dbb565b91506177478261843d565b602082019050919050565b600061775f601283617dbb565b915061776a82618466565b602082019050919050565b6000617782602083617dbb565b915061778d8261848f565b602082019050919050565b60006177a5602983617dbb565b91506177b0826184b8565b604082019050919050565b60006177c8602983617dbb565b91506177d382618507565b604082019050919050565b60006177eb602883617dbb565b91506177f682618556565b604082019050919050565b600061780e602183617dbb565b9150617819826185a5565b604082019050919050565b6000617831601883617dbb565b915061783c826185f4565b602082019050919050565b61785081617efb565b82525050565b61785f81617efb565b82525050565b600060208201905061787a60008301846174c0565b92915050565b600060a08201905061789560008301886174c0565b6178a260208301876174c0565b81810360408301526178b481866174cf565b905081810360608301526178c881856174cf565b905081810360808301526178dc818461753c565b90509695505050505050565b600060a0820190506178fd60008301886174c0565b61790a60208301876174c0565b6179176040830186617856565b6179246060830185617856565b8181036080830152617936818461753c565b90509695505050505050565b6000602082019050818103600083015261795c81846174cf565b905092915050565b6000604082019050818103600083015261797e81856174cf565b9050818103602083015261799281846174cf565b90509392505050565b60006020820190506179b0600083018461752d565b92915050565b600060208201905081810360008301526179d08184617575565b905092915050565b600060208201905081810360008301526179f1816175ae565b9050919050565b60006020820190508181036000830152617a11816175d1565b9050919050565b60006020820190508181036000830152617a31816175f4565b9050919050565b60006020820190508181036000830152617a5181617617565b9050919050565b60006020820190508181036000830152617a718161763a565b9050919050565b60006020820190508181036000830152617a918161765d565b9050919050565b60006020820190508181036000830152617ab181617680565b9050919050565b60006020820190508181036000830152617ad1816176a3565b9050919050565b60006020820190508181036000830152617af1816176c6565b9050919050565b60006020820190508181036000830152617b11816176e9565b9050919050565b60006020820190508181036000830152617b318161770c565b9050919050565b60006020820190508181036000830152617b518161772f565b9050919050565b60006020820190508181036000830152617b7181617752565b9050919050565b60006020820190508181036000830152617b9181617775565b9050919050565b60006020820190508181036000830152617bb181617798565b9050919050565b60006020820190508181036000830152617bd1816177bb565b9050919050565b60006020820190508181036000830152617bf1816177de565b9050919050565b60006020820190508181036000830152617c1181617801565b9050919050565b60006020820190508181036000830152617c3181617824565b9050919050565b6000602082019050617c4d6000830184617856565b92915050565b6000604082019050617c686000830185617856565b617c756020830184617856565b9392505050565b6000617c86617c97565b9050617c928282617fa3565b919050565b6000604051905090565b600067ffffffffffffffff821115617cbc57617cbb6180db565b5b602082029050602081019050919050565b600067ffffffffffffffff821115617ce857617ce76180db565b5b602082029050602081019050919050565b600067ffffffffffffffff821115617d1457617d136180db565b5b617d1d8261812c565b9050602081019050919050565b600067ffffffffffffffff821115617d4557617d446180db565b5b617d4e8261812c565b9050602081019050919050565b6000819050602082019050919050565b600081519050919050565b600081519050919050565b600081519050919050565b6000602082019050919050565b600082825260208201905092915050565b600082825260208201905092915050565b600082825260208201905092915050565b6000617dd782617efb565b9150617de283617efb565b9250827fffffffffffffffffffffffffffffffffffffffffffffffffffffffffffffffff03821115617e1757617e1661804e565b5b828201905092915050565b6000617e2d82617efb565b9150617e3883617efb565b925082617e4857617e4761807d565b5b828204905092915050565b6000617e5e82617efb565b9150617e6983617efb565b925082821015617e7c57617e7b61804e565b5b828203905092915050565b6000617e9282617edb565b9050919050565b60008115159050919050565b6000819050919050565b60007fffffffff0000000000000000000000000000000000000000000000000000000082169050919050565b600073ffffffffffffffffffffffffffffffffffffffff82169050919050565b6000819050919050565b82818337600083830152505050565b60005b83811015617f32578082015181840152602081019050617f17565b83811115617f41576000848401525b50505050565b6000617f5282617efb565b91506000821415617f6657617f6561804e565b5b600182039050919050565b60006002820490506001821680617f8957607f821691505b60208210811415617f9d57617f9c6180ac565b5b50919050565b617fac8261812c565b810181811067ffffffffffffffff82111715617fcb57617fca6180db565b5b80604052505050565b6000617fdf82617efb565b91507fffffffffffffffffffffffffffffffffffffffffffffffffffffffffffffffff8214156180125761801161804e565b5b600182019050919050565b600061802882617efb565b915061803383617efb565b9250826180435761804261807d565b5b828206905092915050565b7f4e487b7100000000000000000000000000000000000000000000000000000000600052601160045260246000fd5b7f4e487b7100000000000000000000000000000000000000000000000000000000600052601260045260246000fd5b7f4e487b7100000000000000000000000000000000000000000000000000000000600052602260045260246000fd5b7f4e487b7100000000000000000000000000000000000000000000000000000000600052604160045260246000fd5b600060033d11156181295760046000803e61812660005161813d565b90505b90565b6000601f19601f8301169050919050565b60008160e01c9050919050565b7f455243313135353a207472616e7366657220746f206e6f6e204552433131353560008201527f526563656976657220696d706c656d656e746572000000000000000000000000602082015250565b7f455243313135353a204552433131353552656365697665722072656a6563746560008201527f6420746f6b656e73000000000000000000000000000000000000000000000000602082015250565b7f5265766572743a206d6f7265205f706f776572206e6565646564000000000000600082015250565b7f455243313135353a2063616c6c6572206973206e6f74206f776e657200000000600082015250565b7f455243313135353a2062616c616e636520717565727920666f7220746865207a60008201527f65726f2061646472657373000000000000000000000000000000000000000000602082015250565b7f4f776e61626c653a206e6577206f776e657220697320746865207a65726f206160008201527f6464726573730000000000000000000000000000000000000000000000000000602082015250565b7f455243313135353a206275726e20616d6f756e7420657863656564732062616c60008201527f616e636500000000000000000000000000000000000000000000000000000000602082015250565b7f455243313135353a207472616e7366657220746f20746865207a65726f20616460008201527f6472657373000000000000000000000000000000000000000000000000000000602082015250565b7f5265766572743a206d6178537570706c79206578636564656400000000000000600082015250565b7f455243313135353a206275726e2066726f6d20746865207a65726f206164647260008201527f6573730000000000000000000000000000000000000000000000000000000000602082015250565b7f455243313135353a20696e73756666696369656e742062616c616e636520666f60008201527f72207472616e7366657200000000000000000000000000000000000000000000602082015250565b7f5265766572743a20706175736564000000000000000000000000000000000000600082015250565b7f5265766572743a206e6f74206163746976650000000000000000000000000000600082015250565b7f4f776e61626c653a2063616c6c6572206973206e6f7420746865206f776e6572600082015250565b7f455243313135353a2073657474696e6720617070726f76616c2073746174757360008201527f20666f722073656c660000000000000000000000000000000000000000000000602082015250565b7f455243313135353a206163636f756e747320616e6420696473206c656e67746860008201527f206d69736d617463680000000000000000000000000000000000000000000000602082015250565b7f455243313135353a2069647320616e6420616d6f756e7473206c656e6774682060008201527f6d69736d61746368000000000000000000000000000000000000000000000000602082015250565b7f455243313135353a206d696e7420746f20746865207a65726f2061646472657360008201527f7300000000000000000000000000000000000000000000000000000000000000602082015250565b7f5265766572743a20616d6f756e7420746f6f20736d616c6c0000000000000000600082015250565b600060443d101561862d576186b0565b618635617c97565b60043d036004823e80513d602482011167ffffffffffffffff8211171561865d5750506186b0565b808201805167ffffffffffffffff81111561867b57505050506186b0565b80602083010160043d0385018111156186985750505050506186b0565b6186a782602001850186617fa3565b82955050505050505b90565b6186bc81617e87565b81146186c757600080fd5b50565b6186d381617e99565b81146186de57600080fd5b50565b6186ea81617ea5565b81146186f557600080fd5b50565b61870181617eaf565b811461870c57600080fd5b50565b61871881617efb565b811461872357600080fd5b5056fea26469706673582212204412c435e6cd1bb84da953ebe31249a1711a70ccf32e6cc4b066a4d3b8f4257664736f6c63430008040033",
  "linkReferences": {},
  "deployedLinkReferences": {}
}